:020000040800F2
:100000007007002029040008450200084702000884
:100010004B0200084F0200085302000800000000D5
:10002000000000000000000000000000570200086F
:1000300059020008000000005B0200085D02000891
:100040004304000843040008430400084304000874
:100050004304000843040008430400084304000864
:100060004304000843040008430400084304000854
:100070004304000843040008430400084304000844
:100080004304000843040008430400084304000834
:100090004304000843040008430400084304000824
:1000A0004304000843040008430400084304000814
:1000B0004304000843040008430400084304000804
:1000C00043040008430400084304000843040008F4
:1000D00043040008E5110008430400084304000835
:1000E00043040008430400084304000843040008D4
:1000F00043040008430400084304000843040008C4
:1001000043040008430400084304000843040008B3
:1001100043040008430400084304000843040008A3
:100120004304000843040008430400084304000893
:1001300000F002F800F03CF80AA090E8000C8244BD
:100140008344AAF10107DA4501D100F031F8AFF29A
:10015000090EBAE80F0013F0010F18BFFB1A43F0A5
:10016000010318476423000084230000103A24BFD1
:1001700078C878C1FAD8520724BF30C830C144BF0C
:1001800004680C607047000000230024002500264E
:10019000103A28BF78C1FBD8520728BF30C148BFEA
:1001A0000B6070471FB502F0BBF81FBD10B510BD46
:1001B00001F02EFA1146FFF7F5FF00F009F801F003
:1001C0004CFA03B4FFF7F2FF03BC00F0AFFF0000EE
:1001D00000F04AFF01F0BEF801F0AAF84FF4165003
:1001E00000F0B1FF22E0124801F07BF81049B1F9AC
:1001F000000001F089FE06460F460D49B1F90400E2
:1002000001F082FE804632463B4601F0B5FB0446D3
:10021000084A094B01F090FE82460022074B01F08C
:100220006BFC074A03C2C82000F055FFDBE7000063
:1002300000000020775AF01ADCA54C400080664090
:1002400008000020704700BFFEE700BFFEE700BFC8
:10025000FEE700BFFEE77047704770477047000039
:1002600000210020674A126842F48032654B1A6010
:1002700000BF644A126802F40030491C10B9B1F59D
:10028000A06FF6D15F4A126812F4003F01D001203E
:1002900000E00020012842D15B4A126842F01002BF
:1002A000594B1A601A46126822F003021A601A4665
:1002B000126842F002021A60524A5268514B5A6068
:1002C0001A4652685A601A46526842F480625A606E
:1002D0001A46526822F47C125A601A46526842F456
:1002E000E8125A601A46126842F080721A6000BF23
:1002F000444A126812F0007FFAD0424A526822F053
:100300000302404B5A601A46526842F002025A6099
:1003100000BF3C4A526802F00C02082AF9D170472B
:1003200010B5FFF79DFF10BD10B53648006840F0CE
:1003300001003449086008464068344908403149A2
:10034000486008460068324908402E49086008465F
:10035000006820F4802008600846406820F4FE0011
:1003600048604FF41F008860FFF7DAFF4FF000602D
:100370002849086010BD10B5002100200022214B43
:100380005B6803F00C0121B1042906D0082928D1AB
:1003900007E0214B214C236027E01F4B1F4C2360BB
:1003A00023E0184B5B6803F47010164B5B6803F492
:1003B0008032022303EB904022B9194B4343174C80
:1003C00023600DE00F4B5B6813F4003F04D0144B27
:1003D0004343124C236003E00F4B43430F4C236015
:1003E00003E00D4B0D4C236000BF00BF054B5B6865
:1003F000C3F303130B4CE15C084B1B68CB40074C69
:10040000236010BD00100240002002400000FFF8F1
:10041000FFFFF6FE08ED00E000127A001000002059
:1004200000093D00140000200948804709480047A2
:10043000FEE7FEE7FEE7FEE7FEE7FEE7FEE7FEE794
:10044000FEE7FEE704480549054A064B70470000F1
:100450002903000831010008700100207007002006
:10046000700300207003002036490143364A1160B2
:10047000704770B5002100230F22C4784CB3324C72
:10048000246804F4E064C4F5E0644FEA1421C1F187
:10049000040322FA01F2447804FA03F1847804EAAE
:1004A000020444EA01014FEA0111284C0678A155E3
:1004B000047804F01F054FF0010404FA05F40578F0
:1004C0004FEA65154FF0E02606EB8505C5F80041BB
:1004D00009E0047804F01F050124AC401C4D0678A7
:1004E000761145F8264070BD1A4A0A4002431A4B5D
:1004F0001A60704741B1194A126842EA00024FF08F
:10050000E023C3F8102D07E0144A126822EA000223
:100510004FF0E023C3F8102D7047042808D14FF0A6
:10052000E021096941F004014FF0E022116107E088
:100530004FF0E021096921F004014FF0E022116140
:10054000704700000000FA050CED00E000E400E058
:1005500080E100E080FFFF1F08ED00E010ED00E00B
:1005600010B50446CA48844208D10121042000F095
:1005700024FB0021042000F020FB46E0C548844213
:1005800008D10121082000F018FB0021082000F00C
:1005900014FB3AE0C048844208D10121102000F049
:1005A0000CFB0021102000F008FB2EE0BB48844229
:1005B00008D10121202000F000FB0021202000F0C4
:1005C000FCFA22E0B648844208D10121402000F024
:1005D000F4FA0021402000F0F0FA16E0B14884421D
:1005E00008D10121802000F0E8FA0021802000F0ED
:1005F000E4FA0AE0AC48844207D10121801500F0FA
:10060000DCFA0021A01500F0D8FA10BD10B50121C8
:10061000084600F0D2FA0021012000F0CEFA10BD09
:100620002DE9F04102460025002600200023002489
:10063000002791F803C00CF00F0591F803C01CF0DF
:10064000100F03D091F802C04CEA0505B1F800C0C4
:100650001CF0FF0F31D0146800202BE04FF0010C8C
:100660000CFA00F3B1F800C00CEA03069E4220D158
:1006700083004FF00F0C0CFA03F7BC4305FA03FCA0
:100680004CEA040491F803C0BCF1280F06D14FF0E6
:10069000010C0CFA00FCC2F814C00AE091F803C087
:1006A000BCF1480F05D14FF0010C0CFA00FCC2F868
:1006B00010C0401C0828D1D31460B1F800C0BCF1B0
:1006C000FF0F34DD546800202EE000F1080C4FF0DD
:1006D000010808FA0CF3B1F800C00CEA03069E42C8
:1006E00021D183004FF00F0C0CFA03F7BC4305FA3D
:1006F00003FC4CEA040491F803C0BCF1280F05D1B7
:1007000000F1080C08FA0CF8C2F8148091F803C044
:10071000BCF1480F07D100F1080C4FF0010808FAAE
:100720000CF8C2F81080401C0828CED35460BDE8F5
:10073000F0814FF6FF710180022181700421C170A8
:1007400070470246002093680B4201D0012000E070
:10075000002070470146886880B27047024600203A
:10076000D3680B4201D0012000E000207047014611
:10077000C86880B2704701617047416170470AB133
:10078000016100E041617047C16070474FF4803201
:100790000A4382618161826182698269704702468F
:1007A0000020424B18684FF68073184040EA021050
:1007B00008433E4B186070473D49C8617047F0B52B
:1007C0000A46002300240021002500F00046B6F16F
:1007D000004F02D1354EF16901E0344E7168C0F32B
:1007E000034583B200F44016B6F5401F08D121F04E
:1007F00070612E4E766826F070662C4F7E6012E097
:1008000000F48016B6F5801F06D1032606FA05F41B
:10081000A14341F0706106E0460D360103FA06F689
:10082000B14341F0706122B1460D360103FA06F67C
:10083000314300F00046B6F1004F02D11B4EF1618A
:1008400001E01A4E7160F0BD30B500228B071C0F1D
:100850000F2303FA04F2154B08338C1053F824309D
:100860009343124C08348D1044F8253023468C10E5
:1008700053F824308C07240F00FA04F423430B4C64
:1008800008348D1044F8253030BD0A49086070479F
:1008900000080140000C014000100140001401401C
:1008A00000180140001C01400020014000000140F0
:1008B00000002042DC002042DB48006840F00100DC
:1008C000D949086008464068D8490840D649486078
:1008D00008460068D6490840D349086008460068C1
:1008E00020F4802008600846406820F4FE0048603C
:1008F0004FF41F0088607047CB49096821F48031AC
:10090000C94A11601146096821F480211160B0F5CF
:10091000803F03D0B0F5802F0ED106E0C2490968B0
:1009200041F48031C04A116007E0BF49096841F4D1
:10093000A021BD4A116000E000BF00BF704710B5A4
:1009400001460022002300204A11012A02D1B64CA0
:10095000236806E0022A02D1B34C236A01E0B24CBC
:10096000636A01F01F02012494401C4201D001205F
:1009700000E0002010BD70B500240025002600BF57
:100980003120FFF7DCFF0646641CB4F5A06F01D0F0
:10099000002EF5D03120FFF7D2FF08B1012500E08D
:1009A0000025284670BD014600209F4A106820F0AF
:1009B000F80040EAC100106070479E490860704727
:1009C00002460020984B586820F47C1042EA01034C
:1009D0001843954B58607047964908667047014622
:1009E0000020914A506820F003000843506070478F
:1009F0008D48406800F00C007047014600208A4A8C
:100A0000506820F0F0000843506070470146002015
:100A1000854A506820F4E060084350607047014602
:100A20000020814A506820F4605040EAC1005060C4
:100A3000704729B17C4A527A02437B4B5A7206E0D6
:100A4000794A527AC343DBB21A40774B5A727047E5
:100A500079490860704701460020734A506820F4C5
:100A600040400843506070470021744A11706E4A3C
:100A700082F82010012802D0042808D103E00121C7
:100A80006E4A117004E005216C4A117000E000BF4D
:100A900000BF70476A49086070476349096A0143AB
:100AA000614A1162704767490860704730B500219C
:100AB0000022002400235C4D6D6805F00C0121B17B
:100AC000042905D0082923D105E05F4D056022E007
:100AD0005D4D05601FE0544D6D6805F47012524D78
:100AE0006D6805F48034022505EB92421CB9574D20
:100AF000554305600BE04C4D6D6815F4003F03D085
:100B0000524D5543056002E04F4D5543056002E0EC
:100B10004D4D056000BF00BF434D6D6805F0F0010D
:100B200009094B4D6B5C0568DD4045603E4D6D68C5
:100B300005F4E061090A464D6B5C4568DD4085605F
:100B4000394D6D6805F46051C90A414D6B5C4568CB
:100B5000DD40C560344D6D6805F44041890B3D4D65
:100B60006B5CC568B5FBF3F5056130BD29B12E4A54
:100B7000526902432C4B5A6104E02B4A526982436A
:100B8000294B5A61704729B1274A92690243264B83
:100B90009A6104E0244A92698243234B9A61704728
:100BA00029B1214AD26902431F4BDA6104E01E4A8F
:100BB000D26982431C4BDA61704729B11A4AD26864
:100BC0000243194BDA6004E0174AD2688243164B9D
:100BD000DA60704729B1144A12690243124B1A6154
:100BE00004E0114A126982430F4B1A6170471A4997
:100BF000086070470F49C86470470B49C871704757
:100C00000948406A40F080700749486270470146D1
:100C10000020054A92680A4201D0012000E000202D
:100C20007047014988727047001002400000FFF8C9
:100C3000FFFFF6FE00004242D80042422010024070
:100C4000800442423C04424200127A0000093D0006
:100C500024000020340000204004424210B5044625
:100C6000FC48844209D101218803FFF7A6FF002137
:100C70004FF48040FFF7A1FF32E0F748844209D1EA
:100C800001214804FFF7A6FF00214FF40030FFF7D1
:100C9000A1FF25E0F148844209D101218804FFF732
:100CA00099FF00214FF48020FFF794FF18E0EC48F3
:100CB000844209D10121C804FFF78CFF00214FF4C1
:100CC0000020FFF787FF0BE0E648844208D10121AE
:100CD0000805FFF77FFF00214FF48010FFF77AFF30
:100CE00010BD2DE9F04786B005460E460024A24609
:100CF00000BFA1460027B08900B100BF2F462C8A53
:100D00004CF6FF700440F08804432C82AC894EF608
:100D1000F3100440B08831890843718908430443C3
:100D2000AC81AC8A4FF6FF400440B0890443AC82EA
:100D300001A8FFF7BBFEC748874202D1DDF810A02B
:100D400001E0DDF80CA0A88910F4004F08D00AEBF0
:100D5000CA0000EB0A1031684900B0FBF1F807E067
:100D60000AEBCA0000EB0A1031688900B0FBF1F809
:100D70006420B8FBF0F004012009642101FB108914
:100D8000A88910F4004F08D0322000EBC900B0FB56
:100D9000F1F000F00700044308E0322000EB0910F6
:100DA0006421B0FBF1F000F00F0004432C8106B089
:100DB000BDE8F0874FF41651016000218180C180A9
:100DC00001810C21418100218181704710B50246CB
:100DD0000020108A4FF2FF0318400B884C882343F1
:100DE0008C882343CC8823431843108210BD0021F4
:100DF000018041808180C180704721B1828942F4A5
:100E00000052828104E082894DF6FF731A4082818C
:100E10007047F0B503460024002600250020A1F508
:100E200010676A3F00D100BF1846C1F3421401F0B9
:100E30001F06012707FA06F5012C01D10C3004E04A
:100E4000022C01D1103000E014301AB107682F4392
:100E5000076002E00768AF430760F0BD10B51AB144
:100E6000838A0B43838204E0838ACC43A4B2234069
:100E7000838210BD028A4FF6F0731A400282028A02
:100E80000A430282704782894FF2FF731A408281BF
:100E900082890A438281704721B1828942F002022D
:100EA000828104E082894FF6FD731A408281704787
:100EB000028A4FF6DF731A400282028A0A430282D4
:100EC000704721B1028A42F48042028204E0028A21
:100ED0004BF6FF731A4002827047C1F3080282800A
:100EE000704701468888C0F308007047818941F047
:100EF000010181817047028BD2B20283028B42EAE8
:100F0000012202837047028B02F47F420283028B2C
:100F10000A430283704721B1828A42F02002828212
:100F200004E0828A4FF6DF731A408282704721B153
:100F3000828A42F01002828204E0828A4FF6EF73C6
:100F40001A408282704721B1828A42F0080282826E
:100F500004E0828A4FF6F7731A408282704721B10B
:100F6000828942F40042828103E08289C2F30E0248
:100F70008281704721B1828A42F40062828204E059
:100F8000828A4FF2FF731A4082827047828A4FF63C
:100F9000FB731A408282828A0A438282704721B19F
:100FA000828A42F00202828204E0828A4FF6FD7356
:100FB0001A408282704702460020B1F5007F00D1BE
:100FC00000BF13880B4201D0012000E000207047D1
:100FD00001F40072B2F5007F00D100BFCA43028065
:100FE000704770B502460024002300250020A1F5BB
:100FF00010666A3E00D100BFC1F3421501F01F0325
:10100000012606FA03F3012D02D19689334006E04A
:10101000022D02D1168A334001E0968A33400C1229
:10102000012606FA04F41688344013B10CB10120ED
:1010300000E0002070BD10B500220023A1F510646F
:101040006A3C00D100BF0A1201249440A3B2DC43E1
:10105000048010BD003801400044004000480040BA
:10106000004C00400050004010B56FF00400FFF746
:1010700054FA2A4800682A49B0FBF1F0294908705F
:10108000084600784FF47A7148432749088010BD1C
:101090000146244A12784A434FF0E0235A61002265
:1010A0009A611A46126942F001021A6100BF4FF0BC
:1010B000E022106910F0010F02D010F4803FF6D04A
:1010C0004FF0E022126922F001024FF0E0231A6192
:1010D00000229A6170470146134A12884A434FF032
:1010E000E0235A6100229A611A46126942F0010215
:1010F0001A6100BF4FF0E022106910F0010F02D01A
:1011000010F4803FF6D04FF0E022126922F0010285
:101110004FF0E0231A6100229A617047100000200E
:1011200000127A00380000203A000020014600BF7B
:10113000704700BF4A4A128812F0400FFAD0C2B27C
:10114000484B1A80704710B586B00446012144F21E
:101150000400FFF718FD4248FFF780FD4FF40070D0
:10116000ADF8140003208DF8160018208DF8170034
:1011700005A93D48FFF754FA4FF48060ADF814001C
:1011800004208DF8170005A93748FFF749FA2520F4
:101190008DF8000003208DF801008DF80200012079
:1011A0008DF803006846FFF764F901940020ADF85C
:1011B0000800ADF80A00ADF80C00ADF810000C20E6
:1011C000ADF80E0001A92648FFF78BFD012240F281
:1011D00025512348FFF71DFE01212148FFF70DFE91
:1011E00006B010BD10B540F225511D48FFF7F9FEBD
:1011F00010B31B48FFF775FEC4B21C48008810F4FA
:10120000004F2BD11948008810F4804F0CD00A2CC5
:1012100003D000201549088020E01448008840F4DD
:1012200000401249088019E00D2C06D10F480088B3
:1012300040F480400D49088010E00C480088C0F35D
:101240000D000B490C5409480088401C07490880D0
:1012500008460088C72801DD0020088010BD000076
:101260000038014004380140000801403C000020E3
:101270004400002070B505460C4600F082F83C2082
:1012800000F04AF900F0C8F8284600F045F900F0EF
:10129000C3F8204600F040F900F0BEF800F097F8DF
:1012A00070BD70B5044600F06CF83C2000F034F9D5
:1012B00000F0B2F8204600F02FF900F0ADF800F091
:1012C00086F800F05EF83D2000F026F900F0A4F862
:1012D00000F059F9054600F0F7F800F078F82846D4
:1012E00070BD70B504460320FFF7DBFF0546042000
:1012F000FFF7D7FF00EB052000B224F8020B052012
:10130000FFF7CFFF05460620FFF7CBFF00EB0520D8
:1013100000B224F8020B0720FFF7C3FF05460820A0
:10132000FFF7BFFF00EB052000B224F8020B70BDF1
:1013300010B514210020FFF79DFF80210120FFF749
:1013400099FF00210220FFF795FF0A20FFF7C3FE57
:1013500010BD000008B501210820FFF714FCC020D3
:10136000ADF8000010208DF8030003208DF8020076
:1013700069469C48FFF754F9C0219A48FFF7FBF9EA
:1013800008BD10B59748006820F070409649C1F834
:10139000000C0846D0F8000C40F04050914908601D
:1013A0004FF00100914908609149C1F898014FF050
:1013B0000500FFF76DFE00208D49C1F89C01052056
:1013C000FFF766FE00208A49C1F8980110BD10B5EC
:1013D0008448006820F070408349C1F8000C08463A
:1013E000D0F8000C40F040507E4908604FF00000FB
:1013F000804908607E49C1F89C014FF00500FFF765
:1014000047FE01207B4908607949C1F89C014FF0F3
:101410000500FFF73DFE10BD10B500240120734903
:1014200008604FF00500FFF733FE6F48D0F8000C5E
:1014300020F070406C49C1F8000C0846D0F8000C50
:1014400040F08040674908604FF001006849C1F8EA
:1014500098014FF00500FFF71BFE05E0601CC4B2C9
:10146000FA2C01DD012010BD634800680028F5D189
:101470006049086000BFF6E710B500205D490860CC
:101480005948D0F8000C20F070405749C1F8000CC2
:101490000846D0F8000C40F04050524908604FF028
:1014A00000005349C1F89C014FF00500FFF7F0FD23
:1014B00001204F49C1F898010520FFF7E9FD002000
:1014C0004B49C1F8980110BD10B50020494908608A
:1014D0004548D0F8000C20F070404349C1F8000C9A
:1014E0000846D0F8000C40F040503E4908604FF0EC
:1014F00001003F49C1F89C014FF00500FFF7C8FD0E
:1015000001203B49C1F898010520FFF7C1FD0020EB
:101510003749C1F8980110BD70B5044631480068DC
:1015200020F070403049C1F8000C0846D0F8000C9B
:1015300040F040502B4908604FF000002D490860F2
:1015400005461DE0E00903D001202849086002E0BB
:101550000020264908606006040E0520FFF798FD6C
:101560000120244908604FF00500FFF791FD00209D
:101570001F49C1F898010520FFF78AFD681CC5B214
:10158000082DDFDB70BD70B500241648006820F020
:1015900070401549C1F8000C0846D0F8000C40F026
:1015A0008040C1F8000C4FF0000516E00020114902
:1015B00008604FF00500FFF76BFD01200C49C1F8F2
:1015C00098016006040E0C48006808B1601CC4B2A3
:1015D0000520FFF75DFD681CC5B2082DE6DB20463F
:1015E00070BD0000000C0140000001409C812142C0
:1015F00000802142988121421C812142704770471E
:101600007047704770470000004870470C01002089
:101610007546FFF7F9FFAE4605006946534620F0D0
:101620000700854618B020B5FEF70CFFBDE8204046
:101630004FF000064FF000074FF000084FF0000B8E
:1016400021F00701AC46ACE8C009ACE8C009ACE841
:10165000C009ACE8C0098D4670470446AFF300806E
:101660002046FEF7AEFD0000004870471001002044
:10167000490050EAC12018BF04204A0D18BF40F0AD
:10168000010040F2FF72B2EB515F08BF40F0020070
:10169000012808BF052070472DE9F0414F1E00EBDF
:1016A000C7010446D1E9000115461E4637F006027F
:1016B0000DD02A46334600F03FFC7F1E04EBC703E3
:1016C000D3E9002300F018FA37F00602F1D1022F17
:1016D00025D0042F13D0062F18BFBDE8F0812A466D
:1016E000334600F029FCD4E90A2300F005FA2A4623
:1016F000334600F021FCD4E9082300F0FDF92A4626
:10170000334600F019FCD4E9062300F0F5F92A4627
:10171000334600F011FCD4E9042300F0EDF92A4629
:10172000334600F009FCD4E9022300F0E5F92A462B
:10173000334600F001FCD4E90023BDE8F04100F09D
:10174000DBB90000024A0020110700F022BE0000B1
:1017500001FDFFFF2DE9F84F04460D4621F0004042
:1017600000917449884212DB7349884201DC07D139
:1017700034B120462946BDE8F84F012200F009BEE9
:101780006E48002DCCBF6E496E49BDE8F88F6E499A
:10179000884211DA6D498842A8BF4FF0FF366DDAF2
:1017A00020462946FFF764FF042808BFFFF7CAFF59
:1017B00020462946BDE8F88F6549DFF898A125F055
:1017C0000045884232DA6449884219DA00263246F6
:1017D0004FF080432046294600F08EF907468846A0
:1017E00001222046294600F0D4FD0022534600F095
:1017F000ADFC3A46434600F02FFA04460D463DE064
:101800000126002253462046294600F075F9074676
:101810008846002253462046294600F097FC43465E
:101820003A4600F019FA04460D4627E04B49884233
:101830001BDADFF82C810226002243462046294687
:1018400000F07AFB0022534600F056F982460F461C
:10185000002243462046294600F078FC52463B468B
:1018600000F0FAF904460D4608E0032622462B460E
:1018700000203C4900F0F0F904460D4622462B4674
:101880002046294600F058FB8B46824602460B460E
:1018900000F052FB07460246334888460B460621B5
:1018A0007844FFF7F9FE52465B4600F045FB82465E
:1018B0002E488B463A46434605217844FFF7ECFE16
:1018C0003A46434600F038FB02460B46002E50468F
:1018D00059460CDA00F010F922462B4600F02CFB9A
:1018E00001B022462B46BDE8F04F00F023BC00F0CB
:1018F00003F922462B4600F01FFB1D4A7A4402EBF7
:10190000C603D3E9002300F021FC22462B4600F059
:101910001DFC184A7A4402EBC603D3E9002300F009
:1019200009FC009A002AB4BF81F00041BDE8F88F9D
:10193000BDE8F88F000010440000F07F182D4454DB
:10194000FB21F93FFB21F9BF0000DC3F0000203EF6
:101950000000F33F0000F03F0000E63F008003403E
:101960000000F83F0000F0BFEC0B0000AA0B0000E5
:10197000480B0000100B00002DE9F04D9446CCF10F
:10198000000423F000464CEA0404524F46EAD474A3
:1019900098468A4621F00042BC4206D8454240EAB9
:1019A000050442EAD474BC4204D9BDE8F04D624655
:1019B00000F0A2B8A8F14055A5F17F6555EA0C04E6
:1019C0000BD0022404EAA874434DDFF810E144EA86
:1019D000DA7452EA000B04D00CE0BDE8F04DFFF7DA
:1019E000B9BE002C14BF012CBDE8F08D022C30D004
:1019F000032C32D056EA0C0B0AD0BE4220D1BA4298
:101A000009D126F0804622F080423346114617E085
:101A100000291ADB25E0DFF8C8B0FB44002C04BF26
:101A2000DBE90001BDE8F08D012C02BFDBE900011C
:101A300081F00041BDE8F08D022C0AD0032C0CD0BF
:101A4000BA4212D1BAF1000F0BDA23482549BDE89A
:101A5000F08D28462449BDE8F08D28467146BDE842
:101A6000F08D1D482149BDE8F08D921B12153C2ACE
:101A7000C4BF19481D490EDCB8F1000FBEBF12F1FA
:101A80003C0F0020014606DB624600F0E5F821F03D
:101A90000041FFF75FFE002C08BFBDE8F08D012C70
:101AA00004BF81F00041BDE8F08D114A114B022CBA
:101AB00007D000F04BFB2A46BDE8F04D0A4B00F082
:101AC00045BB00F043FB2A46BDE8F04D064B00F055
:101AD00031BB00000000F07F182D4454FB2109C0E9
:101AE000A20A0000FB21F9BFFB210940FB21F93FBD
:101AF000075C143326A6A13C10B591EA030F48BF3A
:101B000083F0004300F12A83841A71EB030C05D2A1
:101B1000121943EB0C03001B61EB0C01DFF824E10D
:101B20004FEA1154A4EB135C1EEA430F18BF9EEA60
:101B3000445F73D023EA0E03DCF1200E21EA045146
:101B400043F4801332D322FA0CFE10EB0E0023FA7A
:101B50000CFE41EB0E01CCF1200E03FA0EFE10EB51
:101B60000E0051F10001B1F5801FCCF1200E32D2F0
:101B700001EB045112FA0EF2BDE8104058BF704755
:101B8000401C38BF5FEA420218BF7047002814BFEC
:101B900020F0010041F100014FEA410313F5001F5D
:101BA00038BF7047A1F1C04100F0BEBA012A43EB33
:101BB0000302ACF1200CDCF11F0E32BF4FF0000E1F
:101BC00023FA0CF310EB030041EB0451B4EB115F6B
:101BD000D0D0A1EB045101F5801149085FEA300033
:101BE00001EB04510ED350F1000038BF12FA0EFE83
:101BF00008D1BDE81040C9E7401C38BF5FEA420287
:101C0000CAD1C3E7BDE810404FEA410313F5001FF6
:101C100038BF7047A1F1C04100F086BA9EEA445F28
:101C200008D011EA5E0FBDE8104004BF01F000418A
:101C300000207047BDE8104070B500F027FA00BFE3
:101C400064FBBE3E0000E0FF02494FF0000000F0E0
:101C50006EBB00BF0000F87F2DE9C04130B4DFF853
:101C6000A0C23CEA111418BF3CEA131400F0EC8047
:101C700081EA03051CEA111444EAD57418BF1CEA72
:101C8000131500F0C780A4EB05044FF0004545EAAA
:101C9000C12145EAC32341EA505143EA525304F1BA
:101CA0007F74994204F500344FEAC0204FEAC22203
:101CB00008BF904200F09C804FEA13650FF2401677
:101CC000765D4FEA134506FB05F7C7F1807706FB03
:101CD00007F74FEAD737A7FB03687642C8F5803885
:101CE000A7FB06CE38BFA8F1010807FB08E64FF0B6
:101CF000000EA6FB028CE6FB03CEDCF1000CCEF15D
:101D0000004E38BFAEF1010EA6FB0C584FF0000795
:101D10004FF00005E6FB0E87A1FB08C6A0FB07CE2F
:101D200016EB0E0645F10005E1FB076515F1E04EE7
:101D30007EBFA4F580345FEA46066D4116F1800748
:101D400045F100054FEA17274FEA066647EA05679F
:101D5000A6F1DE46B6F1805F4FEA15251FD9384659
:101D600024F0010C05EBC471BCF1FE6F01EB0C110A
:101D700002D8F0BCBDE8008124425CBF01F5801EA2
:101D80009EEAC47F02D4F0BCBDE80081244238D46E
:101D9000F0BCA1F1C041BDE8004100F0C5B94FEA77
:101DA000D22242EA43524FEAD323A7FB02864FEAEC
:101DB000D02040EA415007FB03661EEA0E0F4FEAAF
:101DC000D12105FB026658BFA6EB0056B6EB0056C4
:101DD0004FEA520E4EEAC37E18EB0E0E56EB530E30
:101DE000BDD518EB02085E417F1C55F10005B6E732
:101DF0004FF480154FF000074FF000064FF0000839
:101E0000ADE7F0BC4FF0000001F1C04101F000412E
:101E1000BDE8008111EA0C1F0CEA131500D00CE09C
:101E200013EA0C1F00F025804FF00000F0BC81EA9F
:101E3000030101F00041BDE80081F0BCBDE80041B4
:101E400081EA030100F070B9F0BCBDE8004170B553
:101E500000F01CF9097EFC3E00F007B881EA03019E
:101E60004FF0000001F00041704781EA030100F0EB
:101E70005BB9F0BCBDE800414FF00000214970475C
:101E8000FFFDFBF9F7F5F4F2F0EEEDEBE9E8E6E43F
:101E9000E3E1E0DEDDDBDAD8D7D5D4D3D1D0CFCDC6
:101EA000CCCBCAC8C7C6C5C4C2C1C0BFBEBDBCBBFF
:101EB000BAB9B8B7B6B5B4B3B2B1B0AFAEADACABFA
:101EC000AAA9A8A8A7A6A5A4A3A3A2A1A09F9F9ED4
:101ED0009D9C9C9B9A999998979796959594939386
:101EE000929191908F8F8E8E8D8C8C8B8B8A89891D
:101EF00088888787868585848483838282818180A0
:101F00000000FF070000F87F10F0004248BF404289
:101F1000B0FA80F310FA03F10AD0C3F11D0303F500
:101F200080634FEA415002EB035202EBD12170472C
:101F30004FF0000070470000DFF848C170B51CEAA0
:101F4000111E1EBF1CEA13159EEA0C0F95EA0C0F1A
:101F500000F06F8081EA030423EA4C134EEAD47E3A
:101F600021EA4C1141F4801143F48013AE44A1FBEB
:101F7000024CA0FB0365AEF17F7E361955EB0C05D4
:101F8000A1FB034C4CF10003A0FB021C16EB0C065A
:101F9000654153F10003094218BF46F0010613F4EE
:101FA000007F0BD14FEA03314FEA0530340341EA99
:101FB000155140EA16506FF003020AE04FEAC321C0
:101FC0004FEAC520F40241EA555140EA56506FF0FD
:101FD000020202EB2E4201EB025585EACE710AD0D5
:101FE0005FEA440C18BF24F0004450F1000041F1B6
:101FF000000120EAD47040F2FE7C624500D270BD40
:10200000A84214BF4FF080444FF04044002E08BF58
:102010000024BEF1806FA8BFA1F1C041BDE87040AF
:1020200080F282804FF0000001F1C04101F00041D8
:1020300070479EEA0C0F0CEA131518BF95EA0C0FB7
:1020400006D04FF0000081EA030E0EF0004170BD93
:1020500000F01CF88900013E00F007B800F009B854
:102060004FEA430C5FEA5C5C08D081EA030100F0B0
:102070005BB84FEA410C5FEA5C5CF6D14FF00000C0
:10208000014970470000FF070000F87F0EF1020EC3
:102090002EF0030E5EF8046B364205D4012A43EBA2
:1020A000030515F5001F12D8012841EB010C1CF5A2
:1020B000001F0CD80ED14FEAD17C15F5001F0CEB98
:1020C0004C0C0CF1020C08BF4CEBD37C04E04FF03D
:1020D000080C01E04FEAD37C0CEB4C0526FA05F620
:1020E00006F00706B6F1040C06D20EEB860CBDE82E
:1020F00070404CF0010C6047DFE80CF0090B020265
:102100004FF000414FF00000A1F5002170BD1946CD
:102110001046012851EB010418BFD4F5001484BF08
:10212000002001F0004170BD0808A0F500114FEA41
:102130003101704791EA030F10B581F000413FF57E
:10214000E3AC83F0004300F009B8000010B591EA59
:10215000030F48BF83F000433FF5D6AC841A71EB00
:10216000030C07D212198CF0004C43EB0C03001B3C
:1021700061EB0C01DFF8A4E14FEA1154A4EB135C0E
:102180001EEA430F18BF9EEA445F00F0B08023EAC6
:102190006E03524221EA0451C3EB6E0338BF5B1E4B
:1021A000DCF1200E25D322FA0CFE10EB0E0043FAD0
:1021B0000CFE41EB0E01CCF1200E03FA0EFE10EBEB
:1021C0000E0051F10001CCF1200E29D412FA0EF2CA
:1021D00001EB0451BDE8104058BF7047401C1CBFC4
:1021E000B2F1004F704700280CBF491C20F00100DD
:1021F000704712EB020E43EB030218BF4FF0010EC3
:102200004EEA4202ACF1200CDCF11E0E54D943FA26
:102210000CFE10EB0E0051F1FF31CCF11E0ED5D5A6
:102220000EF1010E12FA0EFE404141EB010101EBED
:10223000445C5FEA5C5C10D910EBDE7001EB04518A
:1022400038BFBEF1004FBDE8104018BF70470028EE
:102250000CBF491C20F00100704730D24FEAD42C4B
:1022600011F5001124F400641BD0B1FA81F20B3A8D
:10227000A41AA41ED2F12003914030FA03F31943AB
:10228000904001EBCC71002C01EB0451BDE81040F3
:10229000A8BF704701F1C0414FF0000001F00041BC
:1022A0007047B0FA80F310FA03F100D110BDE41AC0
:1022B000173C4805C90AE4E701EB045110BD491079
:1022C00001EB0451BDE810404FEA300002E04FF04E
:1022D000000170474A0008BF0042F8D0B2F5001F65
:1022E00028BF704701F000414FF0000070479EEAA0
:1022F000445F07D011EA5E0FBDE8104004BF002123
:1023000000207047BDE8104070B5FFF7BFFE00BF6A
:1023100040DFF63E83F00041104670470000E0FFCA
:1023200010B5FFF7A1F94FF00001016010BD0CF0EE
:102330000F03092B08BF082000F05B800A2B0BD08D
:10234000082B18BF704708BF1CF0400F0AD04FF091
:1023500000004FF0000170471CF0400F18BF4FF015
:10236000004070471CF0100F08D020F0704300F0C0
:102370007F4242EAD3014FEA4370704700F0604069
:1023800021F07F4242EA000201F07F4040EA727091
:1023900070474FF0FF0C4CF4E06C1CEA11531CBF6B
:1023A0009CEA030C9445C2BFDA4201EB025170472C
:1023B000002B0DD0BCF1000F0FD0002A01F000411E
:1023C000A4BF41F0E04141F07F614FF00000704751
:1023D00001F000414FF00000704750EA01334FF028
:1023E0009B0C18BF4CF0806C7FF42EACAFF30080D8
:1023F00070471CF4801F11D01CF4E02F03D06FEA4B
:10240000CC31490070474FF04050EFF3008222F08A
:10241000704242EA000282F3008870474FF00000E9
:1024200070470000000000004FBB610567ACDD3F56
:10243000182D4454FB21E93F9BF681D20B73EF3FEB
:10244000182D4454FB21F93FE2652F227F2B7A3C63
:10245000075C143326A6813CBDCBF07A8807703C1C
:10246000075C143326A6913CC4EB98999999C9BF8F
:10247000711623FEC671BCBF6D9A74AFF2B0B3BFC4
:102480009AFDDE522DDEADBF2F6C6A2C44B4A2BF84
:102490000D5555555555D53FFF8300922449C23FF0
:1024A0006E204CC5CD45B73F513DD0A0660DB13F24
:1024B000EB0D76244B7BA93F11DA22E33AAD903F36
:1024C0000000000000000000E824000800000020D8
:1024D000440000006C0100082C2500084400002086
:1024E0002C07000088010008000000000000000028
:1024F000000000000000000000A24A0400000000EC
:1025000000000000010203040607080900000000A3
:102510000102030401020304060708090204060875
:0C252000000000000000000000000000AF
:0400000508000131BD
:00000001FF
