:020000040800F2
:1000000018040020450100083D03000835030008DE
:100010003903000815020008D1060008000000009E
:100020000000000000000000000000006103000864
:1000300019020008000000003F03000875040008D2
:100040005F0100085F0100085F0100085F01000810
:100050005F0100085F0100085F0100085F01000800
:100060005F0100085F0100085F0100085F010008F0
:100070005F0100085F0100085F0100085F010008E0
:100080005F0100085F0100085F0100085F010008D0
:100090005F0100085F0100085F0100085F010008C0
:1000A0005F0100085F0100085F0100085F010008B0
:1000B0005F0100085F0100085F0100085F010008A0
:1000C0005F0100085F0100085F0100085F01000890
:1000D0005F0100085F0100085F0100085F01000880
:1000E0005F0100085F0100085F0100085F01000870
:1000F0005F0100085F0100085F0100085F01000860
:100100005F0100085F0100085F0100085F0100084F
:100110005F0100085F0100085F0100085F0100083F
:100120005F0100085F0100085F0100085F0100082F
:10013000DFF80CD000F018F80048004785070008E9
:10014000180400200648804706480047FEE7FEE7FF
:10015000FEE7FEE7FEE7FEE7FEE7FEE7FEE7FEE777
:100160007904000831010008064C074D06E0E068FC
:1001700040F0010394E8070098471034AC42F6D3EE
:10018000FFF7DAFFE00700080008000800B587B0B5
:100190000121C80200F0D4F8C720ADF8140041F6E0
:1001A0001F40ADF810000020ADF81600ADF81200A9
:1001B0008DF8180004A9164800F038FA7020ADF840
:1001C00000000120ADF802000420ADF80400C320B7
:1001D000ADF806000020ADF80800ADF80A004FF4B5
:1001E0008070ADF80C000020ADF80E00694608489C
:1001F00000F0C4F90821064800F00CFA0121044877
:1002000000F06AF90121024800F072F907B000BD60
:10021000002C014000BFFEE770472DE9F041024687
:1002200000250026002000230024002791F803C0A9
:100230000CF00F0591F803C00CF0100CBCF1000F8E
:1002400003D091F802C04CEA050591F800C0BCF15A
:10025000000F31D0146800202BE04FF0010C0CFA95
:1002600000F3B1F800C00CEA03069E4220D18300DF
:100270004FF00F0C0CFA03F7BC4305FA03FC4CEAF1
:10028000040491F803C0BCF1280F06D14FF0010C13
:100290000CFA00FCC2F814C00AE091F803C0BCF1EB
:1002A000480F05D14FF0010C0CFA00FCC2F810C049
:1002B000401C0828D1D31460B1F800C0BCF1FF0F76
:1002C00034DD546800202EE000F1080C4FF00108E6
:1002D00008FA0CF3B1F800C00CEA03069E4221D1E3
:1002E00083004FF00F0C0CFA03F7BC4305FA03FC34
:1002F0004CEA040491F803C0BCF1280F05D100F1C9
:10030000080C08FA0CF8C2F8148091F803C0BCF18C
:10031000480F07D100F1080C4FF0010808FA0CF85B
:10032000C2F81080401C0828CED35460BDE8F0818C
:100330004161704700BFFEE700BFFEE770477047AE
:1003400029B1064A92690243044B9A6104E0034AC8
:1003500092698243014B9A6170470000001002408D
:10036000704710B500F002F810BD00000CB5002079
:10037000019000903348006840F4803031490860B3
:1003800000BF3048006800F4003000900198401C25
:100390000190009818B90198B0F5A06FF1D12948E3
:1003A000006800F4003010B10120009001E000204E
:1003B00000900098012843D12348006840F01000C5
:1003C000214908600846006820F0030008600846DC
:1003D000006840F0020008601A4840681949486007
:1003E0000846406848600846406840F480604860BD
:1003F0000846406820F47C1048600846406840F495
:10040000E81048600846006840F08070086000BF4F
:100410000C48006800F000700028F9D009484068D6
:1004200020F00300074948600846406840F0020099
:10043000486000BF0348406800F00C000828F9D16C
:100440000CBD00000010024000200240042808D12A
:100450004FF0E021096941F004014FF0E022116101
:1004600007E04FF0E021096921F004014FF0E0229C
:10047000116170477047000010B51348006840F0E4
:1004800001001149086008464068104908400E49BB
:100490004860084600680E4908400B490860084655
:1004A000006820F4802008600846406820F4FE00C0
:1004B00048604FF41F008860FFF753FF4FF0006063
:1004C0000449086010BD0000001002400000FFF861
:1004D000FFFFF6FE08ED00E021B1028842F00102C4
:1004E000028004E002884FF6FE731A4002807047D3
:1004F00031B1B0F8442042F40042A0F8442005E0B5
:10050000B0F84420C2F30E02A0F844207047000067
:1005100008B501210420FFF713FF4FF48070ADF8F8
:10052000000018208DF8030003208DF802006946B2
:100530000D48FFF772FE01210820FFF701FF4FF47D
:100540000050ADF8000018208DF8030003208DF84E
:10055000020069460548FFF760FE4FF480510348EA
:10056000FFF7E6FE08BD000000080140000C014056
:1005700010B5FFF7CDFFFFF709FE10BD70B50024E1
:1005800000220023058C4FF6FE7635400584028C50
:100590008388048B4FF68F752C40B51E2C400D8838
:1005A0002C43751E2A400D892A434D882A43144D39
:1005B000A8420BD0134DA84208D0134DA84205D035
:1005C000124DA84202D0124DA84213D14FF6F77532
:1005D0002A404D892A434FF6FB752A408D882A43CD
:1005E0004FF6FF652B404FF6FF552B408D892B436F
:1005F000CD892B4383800483CD888586028470BD9A
:10060000002C014000340140004001400044014002
:10061000004801400A460021018B4FF6F77319404C
:1006200011430183704781867047000000220288D1
:100630001D4B98420ED01D4B98420BD0B0F1804F0D
:1006400008D01B4B984205D01A4B984202D01A4B47
:10065000984204D14FF68F731A404B881A43174BB8
:10066000984207D0164B984204D04FF6FF431A40E9
:10067000CB881A4302808B8883850B8803850A4BBD
:1006800098420BD0094B984208D00E4B984205D0A7
:100690000D4B984202D00D4B984201D10B7A038644
:1006A0000123838270470000002C01400034014088
:1006B0000004004000080040000C00400010004012
:1006C0000014004000400140004401400048014047
:1006D00000BFFEE702E008C8121F08C1002AFAD1D5
:1006E00070477047002001E001C1121F002AFBD1B2
:1006F0007047000010B56FF00400FFF7A7FE0A482E
:1007000000680A49B0FBF1F0094908700846007812
:1007100000EB4001C1EBC0104FF6FF7101EAC000D1
:100720000449088010BD00000000002000127A007B
:1007300014000020160000200146114A12884A4386
:100740004FF0E0235A6100229A611A46126942F082
:1007500001021A6100BF4FF0E022106900F00102AF
:100760001AB100F48032002AF5D04FF0E02212696D
:1007700022F001024FF0E0231A6100229A617047D3
:1007800016000020FFF7B6FFFFF7F2FE4FF4FA74F1
:1007900022E0A0B2FFF7D0FFAF211048FFF743FFE0
:1007A000A0B2FFF7C9FFB4210C48FFF73CFFA0B28D
:1007B000FFF7C2FFB9210948FFF735FFA0B2FFF7E5
:1007C000BBFFBE210548FFF72EFFA0B2FFF7B4FF25
:1007D000AA210248FFF727FFDBE70000002C0140B9
:1007E000000800080000002018000000D4060008DF
:1007F000180800081800002000040000E4060008A3
:1008000000A24A04000000000000000001020304EE
:080810000607080900000000C2
:0400000508000131BD
:00000001FF
